:020000040800F2
:1000000030160220C101000891240008190E0008D2
:100010008D240008650A0008E92900080000000096
:100020000000000000000000000000009D25000806
:10003000690A000800000000D9240008C126000851
:10004000DB010008DB010008DB010008DB01000820
:10005000DB010008DB0100086D0A0008DB01000875
:10006000910B0008DB010008DB010008DB01000840
:10007000DB010008DB010008DB010008DB010008F0
:10008000DB010008DB010008DB010008DB010008E0
:10009000DB010008DB010008DB010008210C00087F
:1000A000DB010008DB010008DB010008DB010008C0
:1000B000DB010008DB010008DB010008DB010008B0
:1000C000DB010008DB010008DB010008DB010008A0
:1000D000DB010008DB010008DB010008DB01000890
:1000E000F90A0008DB010008DB010008DB01000859
:1000F000DB010008DB010008DB010008DB01000870
:10010000DB010008DB010008DB010008DB0100085F
:10011000DB010008DB0100088D280008DB01000876
:10012000DB010008DB010008DB010008DB0100083F
:10013000DB010008DB010008DB010008DB0100082F
:10014000DB010008DB010008DB010008DB0100081F
:10015000DB010008DB010008DB010008DB0100080F
:10016000DB010008DB010008DB010008DB010008FF
:10017000DB010008DB010008DB01000800000000D3
:10018000DB010008DB010008DB010008DB010008DF
:10019000DB010008DB010008DB01000800000000B3
:1001A000DB010008DB010008DB010008DFF80CD0F0
:1001B00000F01EFB00480047A93700083016022057
:1001C0000648804706480047FEE7FEE7FEE7FEE7F1
:1001D000FEE7FEE7FEE7FEE7FEE7FEE7C9260008CA
:1001E000AD010008002800DA40427047D2B201E0B9
:1001F00000F8012B491EFBD270470022F6E710B52C
:1002000013460A4604461946FFF7F0FF204610BD84
:1002100030B504460020034600E05B1C934203D245
:10022000E05CCD5C401BF8D030BD2DE9FE4F804630
:1002300081EA0300C00F0C46009021F0004123F03A
:100240000045B8EB0200A94105D240462146904640
:100250001C460B46024623F00040104347D0270DB2
:10026000C7F30A00C3F30A510290401A01904028D4
:100270006BDAC3F3130040F4801B0098924620B160
:100280000023D2EB030A63EB0B0B01985946C0F134
:100290004002504600F055F906460D465046594674
:1002A000019A00F05DF910EB08006141002487EA33
:1002B000115284EAE7731A4340D0009A62B3019A5C
:1002C000012A4FEA075215DC001B61EB02014FF0D7
:1002D000004202EA0752CDE90042001C41F58011BC
:1002E00032462B4600F094F903B0BDE8F08F40464B
:1002F0002146F9E7001B61EB0201001C41F5801368
:1003000000185B412018A2F5001747EB030140EAF3
:10031000D570B6196D4111E06D084FEA360645EA11
:10032000C0754FEA0752001B61EB0201001C41F54A
:10033000801149084FEA30000019514132462B46DE
:1003400003B0BDE8F04F00F054B90098012240001E
:100350000023D0EB020263EBE073009821464FEAE2
:10036000E074B8EB000061EB0401E9E783F00043BF
:100370005BE781F0004158E72DE9F04D81EA030485
:1003800004F0004B21F0004514464FF0000A23F022
:10039000004150EA050220D054EA01021DD0C5F305
:1003A0000A570246C5F31303C1F31300C1F30A56FB
:1003B00040F4801543F48013A7EB0608101BD646C3
:1003C00008F2FD3873EB050002D308F1010801E0E3
:1003D00092185B41B8F1000F03DA00200146BDE836
:1003E000F08D00204FF48011064684460EE0171B66
:1003F00073EB050705D3121B63EB050306434CEAB9
:10040000010C49084FEA300092185B4150EA01079D
:10041000EDD152EA030012D082EA040083EA05011A
:10042000084305D0101BAB4106D20122002306E091
:1004300000224FF0004302E06FF0010253101AEB6C
:1004400006004CEB085110EB0A0041EB0B01BDE834
:10045000F04D00F0CEB800F0004230F000400AD07D
:10046000C10D01F56071C0F3160042EA0151C208E6
:1004700040071143704700200146704701F00043D8
:1004800030B421F0004150EA010206D00A0DA2F575
:100490006072C1F31301002A02DC30BC00207047F7
:1004A000440F44EAC104C100E01830BC00EBC25064
:1004B00000F068B830B50B46014600202022012428
:1004C00009E021FA02F59D4205D303FA02F5491B22
:1004D00004FA02F52844151EA2F10102F1DC30BD38
:1004E0002DE9F05F0546002092469B468846064669
:1004F000814640241BE0284641464746224600F0FC
:1005000089F953465A46C01A914110D311461846EC
:10051000224600F016F82D1A67EB01084F462246D6
:100520000120002100F00DF817EB00094E41201EBC
:10053000A4F10104DFDC484631462A464346BDE8C3
:10054000F09F202A04DB203A00FA02F100207047D5
:100550009140C2F1200320FA03F319439040704701
:10056000202A06DBCB17203A41FA02F043EAE07377
:1005700006E041FA02F3D040C2F120029140084364
:10058000194670470029A8BF7047401C490008BFA2
:1005900020F00100704710B4B0FA80FC00FA0CF0B3
:1005A00050EA010404BF10BC704749B1CCF12004EB
:1005B00021FA04F411FA0CF118BF01212143084378
:1005C000A3EB0C01CB1D4FEA00614FEA102042BFA4
:1005D000002010BC704700EBC35010440029A4BF9A
:1005E00010BC7047401C490008BF20F0010010BC3F
:1005F000704710B5141E73F1000408DA401C41F175
:10060000000192185B411A4301D120F0010010BD96
:100610002DE9F04D92469B4611B1B1FA81F202E00C
:10062000B0FA80F220329046FFF78BFF04460F4667
:1006300040EA0A0041EA0B0153465A46084313D0E8
:10064000114653EA010019D0C8F14002504600F0AB
:10065000E1F805460E46504659464246FFF771FFFF
:10066000084305D0012004E020463946BDE8F08D5E
:100670000020054346EAE0762C4337430A98630599
:10068000E40AA0EB08000022FD0A44EA47540A30BD
:1006900002D500200146E9E7010510196941DDE9AD
:1006A000084500196941BDE8F04DA2E72DE9FE4F6C
:1006B00081EA030404F0004421F0004100944FF06B
:1006C000000B23F0004350EA01045ED052EA030419
:1006D0005BD0C3F30A54C1F30A552C44A4F2F3349B
:1006E0000194A0FB0254C1F3130141F48011C3F340
:1006F000130343F4801301FB024400FB034E840AFE
:10070000970A44EA815447EA8357A4FB0768029595
:100710008D0A05FB07854FEA932C04FB0C54270533
:10072000029D4FEA065847EA1637B5EB08056EEB0F
:10073000070C870E920E47EA811742EA8312A7FB45
:100740000201B6EB0B0164EB00042B0D43EA0C3302
:100750005E1844EB1C50DA465146E7FB0201C5F334
:1007600013044FEA0B3343EA14534FEA0432019C5B
:1007700043EA0603A4F10C040294009CCDE900B402
:10078000FFF746FF03B0BDE8F08F00200146F9E710
:10079000C1F30A52C1F3130140F2FF3341F4801157
:1007A0009A4202DA00200146704740F233439A42EF
:1007B000A2F2334202DC524200F02CB8FFF7C1BE75
:1007C00030B5041E71F1000404DB4FF000444042D8
:1007D00064EB0101141E73F1000405DB1C464FF0AD
:1007E0000043524263EB0403994208BF904230BD7C
:1007F000064C074D06E0E06840F0010394E807006E
:1008000098471034AC42F6D3FFF7D4FC68F40908DB
:1008100088F40908202A04DB203A21FA02F000219A
:10082000704721FA02F3D040C2F120029140084300
:100830001946704780B584B08DF80F009DF80F20E1
:1008400042F20000C4F20100019000210123029352
:1008500002F098F90198029902F056FAFFE742F285
:100860000000C4F20100022102F078F908B9FFE7A4
:10087000F5E742F20000C4F201000090022102F00C
:1008800063F9009802F038FA04B080BD80B540F6F4
:10089000014003F0C9FA40F20040C4F20200032113
:1008A0000022022302F054FE80BD00000000000080
:1008B00080B58AB040F6024003F0B6FA4FF44060CB
:1008C00003F0B2FA40F60000C4F2020003210191E5
:1008D000002202920223039302F03AFE0199029A47
:1008E000039B0020C4F2020002F032FE0120FFF759
:1008F000A1FF00EE100AB8EE400A10EE100AFFF752
:10090000AAFD41EC100B53EC102B9FED2F0B51EC7B
:10091000100B05910490FFF729FD41EC100B51ECF1
:10092000100B9FED2B0B53EC102B07930692FFF748
:1009300023FD41EC100B51EC100B9FED270B53ECFA
:10094000102B09930892FFF711FD41EC100B51ECAD
:10095000100BFFF793FD40F61051C2F20201086040
:100960000B20FFF767FF00EE100AB8EE400A10EE0A
:10097000100AFFF770FD024604980B46059943ECF8
:10098000102B53EC102BFFF7F1FC069A079B41EC60
:10099000100B51EC100BFFF7EFFC089A099B41EC90
:1009A000100B51EC100BFFF7E1FC41EC100B51EC7C
:1009B000100BFFF763FD40F61451C2F2020108600C
:1009C0000AB080BD00BF00BF000000000000B040C2
:1009D000000000000000A040000000000000F03F08
:1009E00080B584B041F2081003F01EFA4FF4403095
:1009F00002F076F840F60810009003F03DFA0098F7
:100A000003F026FA0020019002F0F0F9019A42F278
:100A10000000C4F201000290022102F093F9019A51
:100A200002984FF4807102F08DF90199029802F05A
:100A300067F8029801220392114602F009F8029821
:100A400002F072F8039802F06BFA029801F0E2FFEC
:100A5000039802F065FAFFF72BFFFFF717FF04B0CA
:100A600080BD0000FFE7FEE7FFE7FEE780B582B04C
:100A7000012002F0B9FBE0B3FFE70020C4F202005E
:100A8000012102F04FFD48B3FFE740F60C50C2F2DF
:100A90000200007808BBFFE7052002F041FA0020C1
:100AA000C4F20200012102F03DFDA8B1FFE740F6CB
:100AB0000D51C2F2020101200190087040F6004081
:100AC000C4F20200802102F011FD019840F60C51A1
:100AD000C2F202010870FFE7FFE706E040F60C51A2
:100AE000C2F2020100200870FFE7012002F072FB51
:100AF000FFE702B080BD000080B582B04FF4004037
:100B000002F072FB002841D0FFE740F20040C4F23F
:100B100002004FF4004102F005FD58B3FFE740F238
:100B20000A00C2F20000007818BBFFE7052002F0BF
:100B3000F7F940F20040C4F202004FF4004102F025
:100B4000F1FCA8B1FFE740F20B01C2F20001012065
:100B50000190087040F60040C4F20200802102F0CB
:100B6000C5FC019840F20A01C2F200010870FFE7DB
:100B7000FFE706E040F20A01C2F20001002008701F
:100B8000FFE74FF4004002F025FBFFE702B080BD15
:100B900080B582B0042002F027FB00283ED0FFE79A
:100BA00040F20040C4F20200042102F0BBFC50B34A
:100BB000FFE740F60E50C2F20200007810BBFFE7DC
:100BC000052002F0ADF940F20040C4F20200042119
:100BD00002F0A8FCA8B1FFE740F60F51C2F20201F3
:100BE00001200190087040F60040C4F2020080210C
:100BF00002F07CFC019840F60E51C2F2020108702E
:100C0000FFE7FFE706E040F60E51C2F202010020C6
:100C10000870FFE7042002F0DDFAFFE702B080BDB4
:100C200080B582B04FF4007002F0DEFA002841D0A7
:100C3000FFE741F60000C4F202004FF4007102F039
:100C400071FC58B3FFE740F20800C2F200000078E0
:100C500018BBFFE7052002F063F941F60000C4F27B
:100C600002004FF4007102F05DFCA8B1FFE740F212
:100C70000901C2F2000101200190087040F6004015
:100C8000C4F20200802102F031FC019840F2080118
:100C9000C2F200010870FFE7FFE706E040F208013A
:100CA000C2F2000100200870FFE74FF4007002F06C
:100CB00091FAFFE702B080BD80B584B00120FFF754
:100CC000B9FD00EE100AB8EE400A10EE100AFFF768
:100CD000C2FB41EC100B9FED1E1B51EC110B53ECB2
:100CE000102BFFF743FB41EC100B51EC100B9FED69
:100CF0001A0B53EC102BFFF73FFB41EC100B51ECA0
:100D0000100B9FED170B53EC102BFFF78EFA41ECF5
:100D1000100B8DED000B40F61050C2F2020000687F
:100D2000FFF799FB9DED001B41EC100B51EC110BF3
:100D300053EC102BFFF71AFB41EC100B51EC100B8E
:100D4000FFF79CFB03909DED030A04B080BD00BF3C
:100D5000000000000000B040000000000000A040C3
:100D6000000000000000F0BF80B584B00B20FFF74A
:100D700061FD00EE100AB8EE400A10EE100AFFF70F
:100D80006AFB41EC100B9FED1E1B51EC110B53EC59
:100D9000102BFFF7EBFA41EC100B51EC100B9FED11
:100DA0001A0B53EC102BFFF7E7FA41EC100B51EC48
:100DB000100B9FED170B53EC102BFFF736FA41EC9D
:100DC000100B8DED000B40F61450C2F202000068CB
:100DD000FFF741FB9DED001B41EC100B51EC110B9B
:100DE00053EC102BFFF7C2FA41EC100B51EC100B37
:100DF000FFF744FB03909DED030A04B080BD00BFE4
:100E0000000000000000B040000000000000A04012
:100E1000000000000000F0BFFFE7FEE780B584B0EF
:100E200002A80090FFF748FF009880ED010AFFF745
:100E30009BFF009880ED000A00218DF8071090EDCF
:100E4000010A9FED2E1AB4EE410AF1EE10FA04DD0C
:100E5000FFE704208DF807002FE0009890ED010ACD
:100E60009FED271AB4EE410AF1EE10FA04DAFFE71B
:100E700003208DF807001FE0009890ED000A9FED19
:100E80001F1AB4EE410AF1EE10FA04DDFFE701206B
:100E90008DF807000FE0009890ED000A9FED181AFA
:100EA000B4EE410AF1EE10FA04DAFFE702208DF801
:100EB0000700FFE7FFE7FFE7FFE700208DF80600E8
:100EC0009DF8070040F63451C2F2020109788842C9
:100ED00009D0FFE79DF8070028B1FFE79DF807005C
:100EE0008DF80600FFE79DF8070040F63451C2F286
:100EF000020108709DF8060004B080BD9A99993EE1
:100F00009A9999BE80B58AB04FF4406002F08CFF88
:100F100040F6034002F088FF40F6044002F084FFF0
:100F200040F6064002F080FF40F60040C4F20200A6
:100F3000009001210591002207928023019302F085
:100F400007FB0098019B07990222089202F04EFBD2
:100F50000599079A41F20000C4F2020002900823AA
:100F6000049302F0F5FA0298049B0799089A02F09C
:100F70003DFB049B0599079A41F60000C4F202006C
:100F8000039002F0E5FA0398049B0799089A02F08F
:100F90002DFB0599079A0020C4F202000690202339
:100FA000099302F0D5FA06980799089A099B02F06E
:100FB0001DFB0AB080BD000080B584B08446069851
:100FC000ADF80EC0ADF80C10ADF80A20ADF8083041
:100FD000ADF806000020ADF80400FFE7BDF80400FE
:100FE000BDF80810884229DAFFE70020ADF80200BA
:100FF000FFE7BDF80200BDF80A10884217DAFFE7E4
:10100000BDF80E00BDF802100844BDF80C10BDF884
:1010100004201144BDF8062080B289B200F0D8FC4B
:10102000FFE7BDF802000130ADF80200E1E7FFE79D
:10103000BDF804000130ADF80400CFE704B080BD76
:1010400080B586B0DDF820C0ADF81600ADF81410FC
:10105000ADF81220ADF8103000200290ADF80E006F
:10106000FFE7BDF80E00BDF81010884235DAFFE743
:101070000020ADF80C00FFE7BDF80C00BDF8121021
:10108000884223DAFFE70899029A8818895C407839
:1010900040EA0120ADF80600BDF81600BDF80C10BE
:1010A0000844BDF81410BDF80E201144BDF8062008
:1010B00080B289B200F08CFC029802300290FFE707
:1010C000BDF80C000130ADF80C00D5E7FFE7BDF826
:1010D0000E000130ADF80E00C3E706B080BD000081
:1010E00080B586B084460898ADF816C0ADF81410E7
:1010F000ADF81220ADF81030ADF80E00BDF81200BA
:10110000BDF81610401AFFF76DF8ADF80C00BDF8E9
:101110001000BDF81410401AFFF764F8ADF80A008B
:10112000BDF81610BDF812204FF0FF309142014675
:10113000B8BF0121ADF80810BDF81410BDF810209B
:101140009142B8BF0120ADF80600BDF80C00BDF813
:101150000A10401AADF80400FFE7BDF81600BDF80C
:101160001410BDF80E2000F033FCBDF81600BDF8D9
:101170001210884208D1FFE7BDF81400BDF8101026
:10118000884201D1FFE732E0BDF804004000ADF82D
:101190000200BDF90200BDF90A10494288420FDD84
:1011A000FFE7BDF80A10BDF80400401AADF80400CE
:1011B000BDF80810BDF816000844ADF81600FFE7AA
:1011C000BDF90200BDF90C1088420FDAFFE7BDF847
:1011D0000C10BDF804000844ADF80400BDF806107A
:1011E000BDF814000844ADF81400FFE7B5E706B0F9
:1011F00080BD000080B584B084460698ADF80EC06E
:10120000ADF80C10ADF80A20ADF80830ADF80600C6
:10121000BDF80E00BDF80C30BDF80A100144BDF851
:101220000620EC46CCF800208AB21946FFF758FF9A
:10123000BDF80E00BDF80C10BDF808201144BDF833
:101240000A200244BDF80630EC46CCF8003092B2D9
:101250008BB21946FFF744FFBDF80E20BDF80C1005
:10126000BDF808000844BDF80630EC46CCF8003064
:1012700083B21046FFF734FFBDF80E00BDF80A1028
:101280004218BDF80C10BDF808000844BDF806303F
:10129000EC46CCF8003092B283B21046FFF720FF44
:1012A00004B080BD80B586B0049003910A20ADF8EB
:1012B00008000020ADF80A00FFE7BDF80A00092881
:1012C00039DCFFE7BDF80A0045F6A842C0F6000287
:1012D000232100FB012004990322FEF799FF18BB8C
:1012E000FFE70020ADF80600FFE7BDF806001F2865
:1012F00016DCFFE7BDF80A0045F6A842C0F600027A
:10130000232100FB0120BDF806201044C07803997A
:101310008854FFE7BDF806000130ADF80600E4E7A9
:1013200001208DF817000AE0FFE7BDF80A00013040
:10133000ADF80A00C1E700208DF81700FFE79DF81F
:10134000170006B080BD000080B586B00490039100
:101350001420ADF808000020ADF80A00FFE7BDF842
:101360000A00132839DCFFE7BDF80A0046F6D672FA
:10137000C0F600024B2100FB012004990322FEF776
:1013800047FF18BBFFE70020ADF80600FFE7BDF8F8
:101390000600472816DCFFE7BDF80A0046F6D672BD
:1013A000C0F600024B2100FB0120BDF806201044CE
:1013B000C07803998854FFE7BDF806000130ADF806
:1013C0000600E4E701208DF817000AE0FFE7BDF80A
:1013D0000A000130ADF80A00C1E700208DF81700BF
:1013E000FFE79DF8170006B080BD000080B586B00D
:1013F000049003910820ADF808000020ADF80A0021
:10140000FFE7BDF80A00072839DCFFE7BDF80A004E
:1014100048F67252C0F60002832100FB01200499B5
:101420000322FEF7F5FE18BBFFE70020ADF806002B
:10143000FFE7BDF806007F2816DCFFE7BDF80A00CD
:1014400048F67252C0F60002832100FB0120BDF86D
:1014500006201044C07803998854FFE7BDF80600C1
:101460000130ADF80600E4E701208DF817000AE02E
:10147000FFE7BDF80A000130ADF80A00C1E700201F
:101480008DF81700FFE79DF8170006B080BD00003B
:1014900084B08DF80F008DF80E1002929DF80F00A9
:1014A00020388DF806009DF80E00014600911028A6
:1014B00008D0FFE70098182822D0FFE700982028DE
:1014C0003ED05BE000208DF80700FFE79DF80700A5
:1014D0000F2814DCFFE79DF8061045F2B860C0F64F
:1014E000000000EB01109DF80720805C02998854F1
:1014F000FFE79DF8070001308DF80700E6E73DE0C3
:1015000000208DF80700FFE79DF807002F2816DC64
:10151000FFE79DF8060000EB400145F60660C0F6C7
:10152000000000EB01109DF80720805C02998854B0
:10153000FFE79DF8070001308DF80700E4E71DE0A4
:1015400000208DF80700FFE79DF807003F2814DC16
:10155000FFE79DF8061047F2B250C0F6000000EB1E
:1015600081109DF80720805C02998854FFE79DF860
:10157000070001308DF80700E6E7FFE704B0704789
:1015800081B040F63C50C2F20200007840B1FFE763
:1015900040F63C50C2F202000078C02805D1FFE7B7
:1015A0004FF48C70ADF8020003E0F020ADF80200BB
:1015B000FFE7BDF8020001B07047000082B0009064
:1015C000009800780006002804D4FFE701208DF879
:1015D000070027E00098007800F0E000C02804D160
:1015E000FFE702208DF807001CE00098007800F06B
:1015F000F000E02804D1FFE703208DF8070011E098
:101600000098007800F0F800F02804D1FFE70420EB
:101610008DF8070006E0FFE7FFE7FFE700208DF801
:101620000700FFE79DF8070002B0704781B040F661
:101630003C50C2F20200007840B1FFE740F63C5057
:10164000C2F202000078C02804D1FFE7F020ADF814
:10165000020004E04FF48C70ADF80200FFE7BDF823
:10166000020001B07047000080B598B000F098FF0C
:1016700040F6054002F0D8FB41F20040C4F20200FF
:10168000059001210A91002209924FF4806306938C
:1016900001F05EFF0598069B09990222029201F073
:1016A000A5FF4FF4406002F0BFFB099A0A990020A1
:1016B000C4F2020003904023009301F049FF009B15
:1016C000029A0398099901F091FF0398099A0A99DF
:1016D0001023019301F03CFF019B029A03980999A2
:1016E00001F084FF0398099A0A998023049301F07A
:1016F0002FFF029A0398049B099901F077FF039842
:1017000004990A9A01F0FAFE05980699099A01F0DF
:10171000F5FE6420079001F003FC059806990A9AEB
:1017200001F0ECFE079801F0FBFB112000F050FEE9
:101730007820179001F0F4FB099800F033F93A2073
:1017400000F046FE05200B9000F060FEB22000F095
:101750003FFE0C20089000F059FE089800F056FE5D
:10176000099800F053FE3320109000F04FFE1098BF
:1017700000F04CFEB72000F02BFE352000F046FEB6
:10178000BB2000F025FE322000F040FEC22000F019
:101790001FFE0A9800F03AFEC32000F019FE152043
:1017A000149000F033FEC42000F012FE202000F060
:1017B0002DFEC62000F00CFE0F2000F027FED020EA
:1017C0000C9000F005FEA42000F020FEA12000F007
:1017D0001DFEE02000F0FCFD0C9800F017FE082034
:1017E0000D9000F013FE0E200E9000F00FFE092069
:1017F0000F9000F00BFE0F9800F008FE0B9800F021
:1018000005FE3120159000F001FE109800F0FEFD5D
:101810004820119000F0FAFD1720129000F0F6FD1C
:101820001420139000F0F2FD149800F0EFFD1598CD
:1018300000F0ECFD3420169000F0E8FDE12000F00F
:10184000C7FD0C9800F0E2FD0D9800F0DFFD0E984A
:1018500000F0DCFD0F9800F0D9FD0F9800F0D6FDE8
:10186000149800F0D3FD159800F0D0FD109800F00A
:10187000CDFD119800F0CAFD129800F0C7FD139835
:1018800000F0C4FD149800F0C1FD159800F0BEFDF5
:10189000169800F0BBFD212000F09AFD292000F0F1
:1018A00097FD179801F03CFB18B080BD80B540F261
:1018B0000C00C2F2000040F60051C0F20201FEF737
:1018C0009CFC80BD80B584B0ADF80E00ADF80C1066
:1018D000ADF80A20ADF8083040F63C50C2F20200E4
:1018E000007840B1FFE740F63C50C2F202000078B9
:1018F000C02806D1FFE7BDF80C001430ADF80C008D
:1019000016E040F63C50C2F202000078702808D081
:10191000FFE740F63C50C2F202000078A02806D152
:10192000FFE7BDF80E001430ADF80E00FFE7FFE74B
:10193000BDF80A000138ADF80A00BDF8080001380A
:10194000ADF808002A2000F043FDBDF80E0000F0BD
:101950007BFDBDF80E00BDF80A10084480B200F00F
:1019600073FD2B2000F034FDBDF80C0000F06CFD81
:10197000BDF80C00BDF80810084480B200F064FD0A
:101980002C2000F025FD0020C4F20200019040212F
:10199000012201F0B3FD01981021002201F0AEFDFB
:1019A00004B080BD80B582B08DF807009DF80700B7
:1019B00040F63C51C2F2020100910870362000F05E
:1019C00007FD0098007800F021FD02B080BD000006
:1019D00080B584B0ADF80E00ADF80C10ADF80A205B
:1019E000BDF80E000190FFF721FE014601988842E4
:1019F0000ADAFFE7BDF80C000090FFF7C1FD0146D1
:101A00000098884201DBFFE765E040F63C50C2F2F7
:101A10000200007888B9FFE7BDF80A00BDF80C1095
:101A2000C1EB0112BDF80E1001EB021240F20C01E5
:101A3000C2F2000121F812004DE040F63C50C2F223
:101A400002000078C02816D1FFE7BDF80A00BDF8F3
:101A50000C2040F21711891AC1EB0112BDF80E10CB
:101A6000C1EB021240F20C01C2F2000101EB420193
:101A7000A1F8DE012EE040F63C50C2F202000078F0
:101A8000702813D1FFE7BDF80A00BDF80E104FF41F
:101A90008C725143BDF80C208A1A40F20C01C2F23C
:101AA000000101EB4201A1F82E0212E0BDF80A008C
:101AB000BDF80E10C1F1EF01BDF80C304FF48C727F
:101AC00001FB023240F20C01C2F2000121F81200C7
:101AD000FFE7FFE7FFE704B080BD000080B58CB0F2
:101AE000ADF82E00ADF82C100A92ADF826300A9809
:101AF0000DF10301FFF7D6FB08B9FFE779E00020FD
:101B00008DF82500FFE79DF825000F2871DCFFE721
:101B100000208DF82400FFE79DF82400012861DCF7
:101B2000FFE700208DF82300FFE79DF8230007283A
:101B300051DCFFE79DF8240018BBFFE79DF8251056
:101B40009DF8240000EB41010DF10300405C9DF87D
:101B500023208021D140084212D0FFE7BDF82E009B
:101B60009DF82310401A0730BDF82C109DF8252051
:101B70001144BDF8262089B280B2FFF729FFFFE7A4
:101B800022E09DF825109DF8240000EB41010DF1A5
:101B90000300405C9DF823208021D140084212D0F0
:101BA000FFE7BDF82E009DF82310401A0F30BDF856
:101BB0002C109DF825201144BDF8262089B280B252
:101BC000FFF706FFFFE7FFE7FFE79DF8230001307F
:101BD0008DF82300A9E7FFE79DF8240001308DF878
:101BE000240099E7FFE79DF8250001308DF82500D6
:101BF00089E70CB080BD000080B598B0ADF85E00FC
:101C0000ADF85C101692ADF8563016980DF10B0138
:101C1000FFF79AFB08B9FFE76DE018208DF80A007E
:101C200003208DF8090000208DF85500FFE79DF88E
:101C3000550017285FDCFFE700208DF85400FFE710
:101C40009DF854009DF8091088424DDAFFE79DF891
:101C500055009DF809109DF8542010FB01210DF14D
:101C60000B00405C8DF8080000208DF85300FFE762
:101C70009DF85300072830DCFFE79DF854109DF8CD
:101C8000530000EBC1008DF807009DF807009DF898
:101C90000A10884201DBFFE71FE09DF808009DF86D
:101CA0005310C840C00788B1FFE7BDF85E009DF83B
:101CB00007100844BDF85C109DF855201144BDF88C
:101CC000562080B289B2FFF783FEFFE7FFE79DF859
:101CD000530001308DF85300CAE7FFE79DF8540028
:101CE00001308DF85400ABE7FFE79DF85500013057
:101CF0008DF855009BE718B080BD000080B5A6B0F8
:101D0000ADF89600ADF894102492ADF88E3024987A
:101D10000DF10B01FFF76AFB08B9FFE79FE02020F8
:101D20008DF80A0004208DF8090000208DF88D0040
:101D3000FFE79DF88D001F2800F39180FFE700204A
:101D40008DF88C00FFE79DF88C009DF80910884203
:101D50007EDAFFE79DF88D009DF809109DF88C2034
:101D600010FB01210DF10B00405C8DF808000020F4
:101D70008DF88B00FFE79DF88B00072861DCFFE7FB
:101D80009DF88C109DF88B0000EBC1008DF80700CA
:101D90009DF807009DF80A10884201DBFFE750E03C
:101DA0009DF808009DF88B208021D140084241D049
:101DB000FFE79DF88C0048B9FFE7BDF896009DF855
:101DC0008B10401A0730ADF8040026E09DF88C0017
:101DD000012809D1FFE7BDF896009DF88B10401A45
:101DE0000F30ADF8040017E09DF88C00022809D1EF
:101DF000FFE7BDF896009DF88B10401A1730ADF83C
:101E0000040008E0BDF896009DF88B10401A1F30C2
:101E1000ADF80400FFE7FFE7FFE7BDF80400BDF8F9
:101E200094109DF88D201144BDF88E2089B2FFF7E3
:101E3000CFFDFFE7FFE79DF88B0001308DF88B00A9
:101E400099E7FFE79DF88C0001308DF88C007AE768
:101E5000FFE79DF88D0001308DF88D0069E726B011
:101E600080BD000080B596B084461898ADF856C085
:101E7000ADF854108DF85320ADF850308DF84F0068
:101E80009DF84F0040088DF80B009DF80B000730BF
:101E9000C0088DF80A009DF853009DF84F1003AA62
:101EA000FFF7F6FA9DF84F0001460191102809D07E
:101EB000FFE7019818286FD0FFE70198202800F06D
:101EC000D58050E100208DF84E00FFE79DF84E00D0
:101ED0009DF84F1088425EDAFFE700208DF84D0034
:101EE000FFE79DF84D009DF80A1088424CDAFFE7A5
:101EF00000208DF84C00FFE79DF84C0007283CDCE3
:101F0000FFE79DF84D109DF84C0000EBC1009DF8D7
:101F10000B10884201DBFFE72FE09DF84E009DF893
:101F20000A109DF84D2010FB012103A8405C9DF88C
:101F30004C208021D140084218D0FFE7BDF8560060
:101F40009DF80B1008449DF84D209DF84C1001EBB6
:101F5000C201401ABDF854109DF84E201144BDF83E
:101F6000502080B289B2FFF733FDFFE7FFE79DF80D
:101F70004C0001308DF84C00BEE7FFE79DF84D00A6
:101F800001308DF84D00ACE7FFE79DF84E000130C1
:101F90008DF84E009AE7E6E000208DF84E00FFE74E
:101FA0009DF84E009DF84F1088425EDAFFE7002052
:101FB0008DF84D00FFE79DF84D009DF80A1088420E
:101FC0004CDAFFE79DF84E009DF80A109DF84D2071
:101FD00010FB012103A8405C8DF8090000208DF85A
:101FE0004C00FFE79DF84C00072830DCFFE79DF828
:101FF0004D109DF84C0000EBC1008DF808009DF8D5
:1020000008009DF80B10884201DBFFE71FE09DF8F8
:1020100009009DF84C10C840C00788B1FFE7BDF823
:1020200056009DF808100844BDF854109DF84E2045
:102030001144BDF8502080B289B2FFF7C9FCFFE718
:10204000FFE79DF84C0001308DF84C00CAE7FFE730
:102050009DF84D0001308DF84D00ACE7FFE79DF88D
:102060004E0001308DF84E009AE77CE000208DF89C
:102070004E00FFE79DF84E009DF84F10884271DA40
:10208000FFE700208DF84D00FFE79DF84D009DF81B
:102090000A1088425FDAFFE700208DF84C00FFE766
:1020A0009DF84C0007284FDCFFE79DF84D0010BB62
:1020B000FFE79DF84E109DF84D0000EB410103A88D
:1020C000405C9DF84C208021D140084212D0FFE7AF
:1020D000BDF856009DF84C10401A0730BDF854105A
:1020E0009DF84E201144BDF8502089B280B2FFF710
:1020F0006FFCFFE721E09DF84E109DF84D0000EBCE
:10210000410103A8405C9DF84C208021D140084249
:1021100012D0FFE7BDF856009DF84C10401A0F3062
:10212000BDF854109DF84E201144BDF8502089B2DE
:1021300080B2FFF74DFCFFE7FFE7FFE79DF84C009B
:1021400001308DF84C00ABE7FFE79DF84D00013002
:102150008DF84D0099E7FFE79DF84E0001308DF8AE
:102160004E0087E7FFE716B080BD000080B588B05D
:10217000FFF75CFA0490FFF703FA049A0346002184
:1021800006910846FFF79EFB069A0020C4F2020063
:102190000590102101F0B2F905984021012201F0CB
:1021A000ADF906980790FFE707980390FFF73EFA0E
:1021B0000290FFF7E5F902990246039851438842DD
:1021C00016D2FFE7079940F20C00C2F2000001901E
:1021D00000EB4100407800F025FA0198079910F8CB
:1021E000110000F01FFAFFE7079801300790DBE7C6
:1021F0000020C4F202001021012201F07FF908B092
:1022000080BD000080B58EB084461098ADF836C011
:10221000ADF834100C92ADF82E308DF82D00002062
:10222000ADF82A00BDF83600ADF82800BDF834003E
:10223000ADF826009DF82D0040088DF824009DF88B
:102240002D008DF82300FFE70C98BDF82A10405CA4
:10225000002800F0BA80FFE70C98BDF82A10084467
:10226000FFF7ACF98DF825009DF8250008B9FFE7C8
:10227000ABE09DF82500032848D1FFE70020079038
:102280000C9ABDF82A30D118D25AADF81C208978A2
:102290008DF81E108DF81F009DF82D000146069147
:1022A000102808D0FFE7069818280ED0FFE70698F8
:1022B000202814D01DE0BDF82800BDF82610BDF878
:1022C0002E3007AAFFF70AFC13E0BDF82800BDF87E
:1022D0002610BDF82E3007AAFFF78EFC09E0BDF8E6
:1022E0002800BDF82610BDF82E3007AAFFF706FD1E
:1022F000FFE79DF82310BDF828000844ADF828003A
:10230000BDF82A000330ADF82A002BE09DF8250027
:1023100001281ED1FFE7BDF82800BDF826100C9A51
:10232000BDF82A30D25CBDF82E309DF82DC0EE46A7
:10233000CEF800C0FFF796FD9DF82410BDF82800E8
:102340000844ADF82800BDF82A000130ADF82A0095
:1023500007E09DF82510BDF82A000844ADF82A00D2
:10236000FFE7FFE7BDF8280005909DF8250003284A
:1023700004D1FFE79DF82300049003E09DF82400BA
:102380000490FFE70598049908440390FFF74EF97D
:1023900001460398884217DBFFE7BDF83600ADF829
:1023A00028009DF82500032803D1FFE710200290A4
:1023B00003E09DF82D000290FFE70299BDF826008A
:1023C0000844ADF82600FFE73EE70EB080BD0000F0
:1023D00080B584B08DF80F000020C4F20200019097
:1023E00040210022009201F089F8009A0198102102
:1023F000029101F083F89DF80F0000F013F90198A5
:102400000299012201F07AF804B080BD80B584B051
:102410008DF80F000020C4F202000090402101223C
:10242000029201F06BF8009810210191002201F056
:1024300065F89DF80F0000F0F5F800980199029AF0
:1024400001F05CF804B080BD80B584B0ADF80E003A
:102450000020C4F20200009040210122029201F00B
:102460004DF8009810210191002201F047F89DF8E5
:102470000F0000F0D7F89DF80E0000F0D3F8009898
:102480000199029A01F03AF804B080BDFFE7FEE737
:10249000FFE7FEE782B08DF8070000919DF9070085
:1024A000B0F1FF3F0CDCFFE7009800019DF807103A
:1024B00001F00F014EF61452CEF20002885409E0EA
:1024C000009800019DF907104EF20042CEF2000282
:1024D0008854FFE702B07047FFE7FEE780B58EB093
:1024E0004FF4406001F0A0FC0020C4F20200019013
:1024F00002210491002205920423029301F028F89E
:102500000198029B049A059901F070F80198029ACB
:102510000121039100F078FF4FF4805001F084FC1A
:102520004FF08040069002F08BFA05990698C7227A
:10253000ADF82820ADF82A10ADF82C1040F2E732A3
:102540000C92ADF82E108DF834100AA902F080FB21
:10255000039B0499059A0698ADF82020ADF81C302D
:10256000ADF82220ADF81E20ADF82420ADF82620CD
:1025700007AA02F051F804990698602202F0B0F917
:102580000499059A069802F015FA069802F03AF8AE
:10259000069802F053FB0EB080BD0000FFE7FEE797
:1025A00080B58CB040F6054001F03EFC41F21410BD
:1025B00001F03AFC41F20040C4F202000190052112
:1025C0004FF46072029200F01FFF0198029B0221FB
:1025D00000910022039200F0BBFF009A0198029B39
:1025E000039901F003F80198029900F077FF03982E
:1025F00006904FF482710591079003210A914FF4E0
:10260000007108910B90099045F20000C4F201009E
:10261000049005A901F086FE049801F059FE0CB063
:1026200080BD000080B582B08DF80700FFE745F25D
:102630000000C4F20100022101F05EFE08B9FFE7CC
:10264000F5E79DF8071045F20000C4F2010001F023
:1026500049FEFFE745F20000C4F20100022101F04B
:102660004BFE08B9FFE7F5E702B080BD80B582B048
:10267000009000980138B0F1807F03D3FFE701207C
:10268000019019E0009801384EF21401CEF20001D9
:1026900008604FF0FF300F21FFF7FCFE4EF21801EB
:1026A000CEF20001002008604EF21002CEF20002CD
:1026B000072111600190FFE7019802B080BD000082
:1026C00080B500F041FC80BD80B584B04EF68851E5
:1026D000CEF20001086840F47000086043F6000183
:1026E000C4F20201086840F001000860FFE743F609
:1026F0000000C4F2020000688007002801D4FFE750
:10270000F5E743F60800C4F20200006800F00C0090
:10271000082840F08080FFE7FFE700200390FFE7F4
:1027200003984F2805D8FFE7FFE70398013003908F
:10273000F6E743F60801C4F2020108680290029825
:1027400020F0F0000290029840F080000290029881
:10275000086000200390FFE703984F2805D8FFE7A3
:10276000FFE7039801300390F6E743F60801C4F24F
:10277000020108680290029820F0F000029002988E
:1027800040F0900002900298086000200390FFE75C
:1027900003984F2805D8FFE7FFE70398013003901F
:1027A000F6E743F60801C4F20201086802900298B5
:1027B00020F0F0000290029840F0A00002900298F1
:1027C000086000200390FFE703984F2805D8FFE733
:1027D000FFE7039801300390F6E743F60801C4F2DF
:1027E000020108680290029820F0F000029002981E
:1027F00040F0B00002900298086000200390FFE7CC
:1028000003984F2805D8FFE7FFE7039801300390AE
:10281000F6E7FFE7FFE743F60801C4F20201019182
:10282000086820F003000860C82000F0DFF8019974
:1028300043F60002C4F2020210684FF6FF73CFF6AF
:10284000F66318401060106820F4802010600020AB
:102850000860FFE743F60800C4F2020000680120A8
:1028600008B9FFE7F6E743F60401C4F2020143F2B8
:102870001000C2F20040086043F60C01C4F20201ED
:102880000020086001F0A0FE04B080BD80B541F2D8
:102890000000C4F20000012102F06EFA012828D1E4
:1028A000FFE741F20000C4F20000012102F05AFAF1
:1028B00040F63E50C2F202000088012818DBFFE714
:1028C00040F63E50C2F202000188013901800088C2
:1028D00068B9FFE74FF080400221002202F046F87D
:1028E00041F20000C4F2000002F09EF9FFE7FFE7AA
:1028F000FFE780BD81B0FFE7FFE740F60400C5F2C7
:1029000006000068C00708B9FFE7F6E740F60400D4
:10291000C5F2060000684006002815D5FFE740F61E
:102920000401C5F20601086820F04000086040F686
:102930000001C5F20601086820F00400086008687C
:1029400040F004000860D7E740F60400C5F2060036
:1029500000688006002809D5FFE740F60401C5F2AB
:102960000601086820F020000860C5E740F608006E
:10297000C5F2060000680090009840F63851C2F297
:1029800002010968884209D0FFE7009840F63851F3
:10299000C2F202010860009801B07047ACE7000085
:1029A00080B540F6065001F03FFA40F60001C5F24E
:1029B0000601086840F004000860FFE740F60400E4
:1029C000C5F206000068C00708B9FFE7F6E740F661
:1029D0000800C5F20600006840F63851C2F2020154
:1029E0000020086080BD0000FFE7FEE782B0019094
:1029F00000200090FFE70098019901EB8101B0EB06
:102A0000410F05D2FFE7FFE7009801300090F2E7A1
:102A100002B0704781B000900099886840F00800CB
:102A20008860FFE7009880680007002801D5FFE76D
:102A3000F8E70099886840F004008860FFE7009894
:102A400080684007002801D5FFE7F8E701B070472C
:102A500084B003908DF80B1001929DF80B00014695
:102A60000091012804D0FFE7009802281AD033E033
:102A70000198B0B1FFE70198102812D8FFE7039939
:102A8000C86A20F47000C86201990020CFF6F07087
:102A900000EB01503FFA80F20399C86A1043C86204
:102AA000FFE71AE00198B0B1FFE70198042812D8B7
:102AB000FFE70399886B20F4401088630199002098
:102AC000CFF6F07000EB015000F440120399886BD0
:102AD00010438863FFE700E0FFE704B070470000A1
:102AE00081B0009042F20431C4F20101086820F480
:102AF000E0200860009A08681043086001B0704741
:102B000082B001900091009830B1FFE70199886888
:102B100040F40060886005E00199886820F4006056
:102B20008860FFE702B0704781B00090009880682D
:102B3000C00730B9FFE70099886840F0010088605D
:102B4000FFE701B07047000082B001900091009A49
:102B5000019908689043086002B0704783B0029002
:102B6000019100208DF80300029800680199084245
:102B700004D0FFE701208DF80300FFE79DF8030074
:102B800003B0704785B004908DF80F108DF80E20BB
:102B900002939DF80F0005281CDCFFE70498406BAA
:102BA00001909DF80F0000EB80011F2000FA01F159
:102BB0000198884301909DF80E009DF80F1001EBDD
:102BC000810100FA01F101980843019001980499EC
:102BD00048634AE09DF80F000B281FDCFFE70498CC
:102BE000006B01909DF80F0000EB8000A0F11E012A
:102BF0001F2000FA01F10198884301909DF80E0012
:102C00009DF80F1001EB81011E3900FA01F10198C6
:102C10000843019001980499086325E09DF80F008E
:102C20000F281FDCFFE70498C06A01909DF80F0091
:102C300000EB8000A0F13C011F2000FA01F1019897
:102C4000884301909DF80E009DF80F1001EB810163
:102C50003C3900FA01F10198084301900198049968
:102C6000C86200E0FFE7FFE7FFE79DF80E000928D4
:102C70001BDCFFE70498006900909DF80E0000EB54
:102C80004001072000FA01F1009888430090029863
:102C90009DF80E1001EB410100FA01F10098084384
:102CA000009000980499086124E09DF80E00122815
:102CB0001EDCFFE70498C06800909DF80E0000EB52
:102CC0004000A0F11E01072000FA01F1009888439E
:102CD000009002989DF80E1001EB41011E3900FA98
:102CE00001F100980843009000980499C86000E042
:102CF000FFE7FFE705B0704781B000900098C06C17
:102D000080B201B07047000083B002908DF80710C8
:102D10009DF8070001460091012804D0FFE70098C4
:102D2000022806D00BE00299886840F08040886055
:102D300006E00299886840F48000886000E0FFE7C0
:102D400003B0704783B0029001918DF803209DF885
:102D5000030020B3FFE79DF80500C00730B1FFE78F
:102D60000299486840F480704860FFE79DF80500CC
:102D70004007002806D5FFE70299486840F48060C4
:102D80004860FFE79DF804008007002806D5FFE7AC
:102D90000299886840F002008860FFE723E09DF810
:102DA0000500C00730B1FFE70299486820F4807041
:102DB0004860FFE79DF805004007002806D5FFE7BB
:102DC0000299486820F480604860FFE79DF804009D
:102DD0008007002806D5FFE70299886820F00200E6
:102DE0008860FFE7FFE703B07047000081B0009004
:102DF00042F20431C4F20101086820F01F000860AB
:102E0000009A08681043086001B0704780B586B02A
:102E1000ADF81600ADF8141041F2040001F004F80A
:102E20004FF0807001F03CF841F20000C4F2000065
:102E3000009001F005FE0098BDF816100139ADF8BC
:102E400004100021ADF80610ADF80810BDF81420EC
:102E5000013A0392ADF80A108DF8101001A901F0A3
:102E6000F7FE36200321022200F03CFF00980121EA
:102E700001F06EFF009801F0E1FE06B080BD000099
:102E800080B586B0059004918DF80F209DF80F0055
:102E900001460291032840D80299DFE801F00211AF
:102EA000202FBDF81400BDF810104CF2CA62C0F615
:102EB00003026B461A6014231A46FEF7C1F82CE091
:102EC000BDF81400BDF810104BF66A52C0F60302AC
:102ED0006B461A6014231A46FEF7B2F81DE0BDF8DF
:102EE0001400BDF810104CF28A02C0F603026B46C3
:102EF0001A6014231A46FEF7A3F80EE0BDF814007A
:102F0000BDF810104CF2AA32C0F603026B461A60EC
:102F100014231A46FEF794F8FFE706B080BD0000C0
:102F200081B00090009840F61C51C2F20201086086
:102F3000FFE740F61C50C2F20200006808B1FFE74C
:102F4000F7E701B07047000040F61C50C2F20200E3
:102F5000006840B1FFE740F61C51C2F20201086868
:102F600001380860FFE7704780B586B0059004918E
:102F7000039203980290012808D0FFE702980228E4
:102F800013D0FFE7029803281ED02CE0BDF81400F0
:102F9000BDF810104BF20A42C0F603026B461A60ED
:102FA00014231A46FEF74CF81DE0BDF81400BDF8D6
:102FB00010104BF22A72C0F603026B461A601423FB
:102FC0001A46FEF73DF80EE0BDF81400BDF81010EB
:102FD0004BF64A22C0F603026B461A6014231A46C7
:102FE000FEF72EF8FFE706B080BD000080B582B086
:102FF0004EF23200C0F607006946086064200021E6
:103000003A221423FEF71CF802B080BD80B586B0CA
:103010000590049103920398D8B1FFE7BDF814001E
:10302000BDF810106B464FF6AE421A6013230293A0
:103030001A46FDF7C1FF029BBDF81400BDF8101041
:10304000EC464FF60522CCF800201A46FEF7D2F8DF
:103050001AE0BDF81400BDF810106B464FF6F6529A
:103060001A60132301931A46FDF7A6FF019BBDF8D2
:103070001400BDF81010EC464FF60522CCF80020E5
:103080001A46FEF7B7F8FFE706B080BD80B584B0FA
:1030900003900291BDF80C00BDF808106B464FF686
:1030A000FF721A6014231A46FDF786FF04B080BD34
:1030B00084B003908DF80B108DF80A20039A43F624
:1030C0000041C4F20101086890430860039A43F686
:1030D0000441C4F20101086890430860039A43F672
:1030E0000841C4F20101086890430860039A43F65E
:1030F0000C41C4F201010868904308609DF80B0080
:103100000146019120B1FFE70198012809D011E0A3
:10311000039A43F60041C4F20101086810430860B5
:1031200009E0039A43F60441C4F201010868104320
:10313000086000E0FFE79DF80A00014600910328BF
:1031400038D80099DFE801F002132435039A43F6DA
:103150000841C4F20101086810430860039A43F66D
:103160000C41C4F2010108689043086023E0039A0F
:1031700043F60841C4F20101086890430860039ACD
:1031800043F60C41C4F2010108681043086012E0E4
:10319000039A43F60841C4F201010868104308602D
:1031A000039A43F60C41C4F2010108681043086019
:1031B00001E0FFE7FFE704B07047000081B0009036
:1031C000009A43F60041C4F2010108681043086008
:1031D00001B0704781B00090009843F61441C4F2EA
:1031E0000101086001B0704782B0009043F61440BE
:1031F000C4F2010000680099084204D0FFE70120F2
:103200008DF8070003E000208DF80700FFE79DF828
:10321000070002B07047000080B5FFF7C1FB00F067
:1032200001F880BD80B58CB000200B90FFE70B98B3
:10323000002859D1FFE701200B90FFF75BFB4AF60E
:10324000AB21CAF6AA21A0FB0121C90801EB41016B
:10325000A0EB810040F62051C2F202010891086003
:10326000FFF748FB089903464EF64F40C4F6C4608A
:10327000A3FB002080080D2200FB123048600020D4
:103280000A90FFE70A9840F64451C2F20201D1F8D1
:10329000E014884227DAFFE740F62050C2F202002D
:1032A00000680A9A40F64451C2F2020151F8321005
:1032B000884213D1FFE740F62050C2F20200406876
:1032C0000A9A40F64451C2F2020101EBC201496878
:1032D000884203D1FFE700200B9004E0FFE70A9843
:1032E00001300A90CEE7A2E7FFF704FB024648F25E
:1032F0001F50C5F2EB10A2FB00104009642100FB37
:103300001120099009983B2817D8FFE740F6205074
:10331000C2F202000590012106918160006800F070
:10332000CFFC014605980791406800F0D1FC069A51
:1033300001460798FFF718FE31E00998592817D879
:10334000FFE740F62050C2F20200029002210391F2
:103350008160006800F0B4FC014602980491406866
:1033600000F0B6FC039A01460498FFF7FDFD15E056
:1033700040F62050C2F202000090052181600068F2
:1033800000F09EFC014600980191406800F0A0FC0E
:10339000014601980322FFF7E7FDFFE7FFE70CB0C6
:1033A00080BD000080B584B069464FF6FF700860AC
:1033B00000210391F02202924FF48C730846FDF72E
:1033C000FBFD00F0B9FDFFF711FE029A0398694674
:1033D000086013231946FDF783FE00F07DFD00F021
:1033E00067FE00F0C1FDFFF717FF039840F630516C
:1033F000C2F20201086040F62C51C2F20201012023
:10340000086004B080BD000086B00590049103926E
:103410000598006A01900598406A00900020ADF878
:103420000A00FFE7BDF80A00072821D8FFE7BDF82A
:103430000A100398C840C00798B1FFE7BDF80A001A
:1034400081000F2000FA01F101988843019004984F
:10345000BDF80A10890000FA01F1019808430190B3
:10346000FFE7FFE7BDF80A000130ADF80A00D9E731
:103470000820ADF80A00FFE7BDF80A000F2825D89C
:10348000FFE7BDF80A100398C840C007B8B1FFE7CE
:10349000BDF80A006FF01F0101EB80020F2000FA57
:1034A00002F20098904300900498BDF80A2001EBC6
:1034B000820100FA01F1009808430090FFE7FFE75E
:1034C000BDF80A000130ADF80A00D5E7019805996A
:1034D000086200980599486206B0704782B0019072
:1034E000009100980199886102B0704782B0019004
:1034F000009100980199C86202B0704783B00290B1
:1035000001918DF803209DF8030020B1FFE7019899
:103510000299886103E0019802998862FFE703B08D
:103520007047000083B001900091019800690099F4
:10353000084204D0FFE701208DF80B0003E00020D3
:103540008DF80B00FFE79DF80B0003B070470000FB
:1035500087B0069005910492039306980068019045
:103560000698C06800900020ADF80A00FFE7BDF89B
:103570000A000F2832D8FFE7BDF80A100398C840A8
:10358000C00720B3FFE7BDF80A004100032000FA9E
:1035900001F20199914301910599BDF80A20520069
:1035A00001FA02F2019911430191BDF80A10490094
:1035B00000FA01F10098884300900498BDF80A10C1
:1035C000490000FA01F1009808430090FFE7FFE787
:1035D000BDF80A000130ADF80A00C8E70198069965
:1035E000086000980699C86007B0704786B00590DB
:1035F0008DF81310039202939DF81300012806D151
:10360000FFE7029A059948681043486005E0029A6E
:103610000599486890434860FFE7059880680090E6
:103620000020ADF80600FFE7BDF806000F2821D8FE
:10363000FFE7BDF806100298C840C00798B1FFE741
:10364000BDF806004100032000FA01F1009888430C
:1036500000900398BDF80610490000FA01F10098A7
:1036600008430090FFE7FFE7BDF806000130ADF822
:103670000600D9E700980599886006B070470000F9
:1036800080B58AB04FF4406000F0CEFB40F60140B8
:1036900000F0CAFB40F6064000F0C6FB41F20E10F7
:1036A00000F0C2FB0020C4F20200002104910222BB
:1036B000059201230693FFF74BFF0499059A40F208
:1036C0000040C4F20200019004230793FFF740FF7B
:1036D0000499059A41F60000C4F202004FF4007309
:1036E0000893FFF735FF01980499059A4FF40043BA
:1036F0000993FFF72DFF4FF4A06000F087FB062031
:10370000039003220292114600F0ECFA029A08207C
:10371000114600F0E7FA029A1720114600F0E2FA8B
:10372000029A2820114600F0DDFA0499084600F0BC
:1037300033FE0599069800F02FFE0398092100F04A
:103740002BFE06980F2100F027FE0499059A069893
:10375000FFF7AEFC0499059A0798FFF7A9FC0499B6
:10376000059A0898FFF7A4FC0499059A0998FFF7B1
:103770009FFC0698FFF722FD0798FFF71FFD0898AA
:10378000FFF71CFD0998FFF719FD0698FFF722FDCA
:103790000798FFF71FFD0898FFF71CFD0998FFF732
:1037A00019FD0AB080BD000080B58EB000200D90DC
:1037B00000F00EFFFFF764FFFDF7A4FBFDF754FFD9
:1037C000FDF70EF9FEF78AFEC8204FF47A71FFF775
:1037D0001DFBFFE7FDF722FB8DF8330040F6195083
:1037E000C2F2020000780146079150B1FFE7079846
:1037F000012800F0D280FFE70798022800F07B81C3
:103800005DE2FEF753F840F20400C2F200000078D7
:103810000146069120B3FFE70698012804D0FFE790
:10382000069802280ED029E04EF64210C0F6070096
:10383000694608600021F0224FF48C730846FDF7BA
:10384000FFFB1BE04DF21250C0F605006946086010
:103850000021F0224FF48C730846FDF7F1FB0DE0D8
:103860004CF6EA10C0F60300694608600021F02219
:103870004FF48C730846FDF7E3FBFFE7FEF776FC99
:1038800040F20900C2F200000078C00728B9FFE743
:103890009DF8330001281DD1FFE740F20400C2F279
:1038A0000000007838B9FFE740F20401C2F20001DD
:1038B0000220087007E040F20401C2F2000108781B
:1038C00001380870FFE740F20901C2F20001002050
:1038D0000870FFE740F20B00C2F200000078C0075A
:1038E00028B9FFE79DF8330002281ED1FFE740F218
:1038F0000400C2F200000078022807D1FFE740F27E
:103900000401C2F200010020087007E040F2040147
:10391000C2F20001087801300870FFE740F20B01A5
:10392000C2F2000100200870FFE740F60F50C2F21B
:1039300002000078C00728B9FFE79DF8330004288B
:1039400016D1FFE740F20400C2F20000007801281F
:1039500007D1FFE740F61951C2F2020101200870B9
:10396000FFE740F60F51C2F2020100200870FFE7A6
:1039700040F60D50C2F202000078C00728B9FFE7F8
:103980009DF83300032807D1FFE740F60D51C2F23E
:10399000020100200870FFE791E140F62C50C2F2CE
:1039A00002000068002840F0A580FFE7FDF77EFFD9
:1039B000FFF7F8FCFEF7DAFBFFE740F63050C2F203
:1039C0000200006800287BD1FFE7FDF727FA8DF899
:1039D000320040F20900C2F200000078C00728B9A6
:1039E000FFE79DF8320001280DD1FFE740F6445172
:1039F000C2F20201002081F8E40440F20901C2F29F
:103A000000010870FFE740F20B00C2F200000078EE
:103A1000C00728B9FFE79DF8320002280ED1FFE762
:103A200040F64451C2F20201012081F8E40440F260
:103A30000B01C2F2000100200870FFE740F60F50B2
:103A4000C2F202000078C00728B9FFE79DF83200F3
:103A500004280ED1FFE740F64451C2F202010320D0
:103A600081F8E40440F60F51C2F202010020087010
:103A7000FFE740F60D50C2F202000078C00728B9F7
:103A8000FFE79DF8320003280ED1FFE740F64451CE
:103A9000C2F20201022081F8E40440F60D51C2F2A4
:103AA000020100200870FFE700F0ACFA00F012FB02
:103AB00000F05AFAFEF75AFBFA20FFF731FA7CE7DA
:103AC00040F63050C2F20200006890B1FFE740F6C5
:103AD0001951C2F202010220087040F63051C2F2C0
:103AE00002010020086040F62C51C2F20201086079
:103AF000FFE7FFE7FFE740F64050C2F2020002682E
:103B00004FF26241C0F609010DF1220001F052F9B5
:103B100069464FF6FF700390086000200490F02281
:103B200013231946FDF7DCFA039804996A461060DE
:103B300064203A221423FDF73FFA40F61850C2F2EF
:103B4000020000780146059120B1FFE705980128A1
:103B500018D02FE049F28A10C0F6000069460860CC
:103B6000002002901921F022D223FDF769FA029B6E
:103B7000694610200860762064210DF12202FEF7CC
:103B800041FB17E042F2CA20C0F602006946086015
:103B9000002001901921F022D223FDF751FA019B58
:103BA000694610200860762064210DF12202FEF79C
:103BB00029FBFFE7FEF7DAFAFDF730F98DF821006F
:103BC00040F20900C2F200000078C00728B9FFE700
:103BD0009DF8210001281DD1FFE740F61850C2F2E0
:103BE0000200007838B9FFE740F61851C2F202012E
:103BF0000120087007E040F61851C2F2020108786F
:103C000001380870FFE740F20901C2F2000100200C
:103C10000870FFE740F20B00C2F200000078C00716
:103C200028B9FFE79DF8210002281ED1FFE740F6E2
:103C30001850C2F202000078012807D1FFE740F6D1
:103C40001851C2F202010020087007E040F6185136
:103C5000C2F20201087801300870FFE740F20B0160
:103C6000C2F2000100200870FFE740F60F50C2F2D8
:103C700002000078C00728B9FFE79DF8210004285A
:103C80001CD1FFE740F61850C2F20200007838B9A4
:103C9000FFE740F61951C2F202010020087006E069
:103CA00040F61951C2F2020101200870FFE740F608
:103CB0000F51C2F2020100200870FFE7FFE789E51B
:103CC00081B00090009800EB8000800001B0704748
:103CD00081B00090009800EB8001142000EB81007F
:103CE00001B0704780B584B08DF80F008DF80E10CC
:103CF0008DF80D2000200290019000904EF60C509F
:103D0000CEF20000006800F4E060B0F5E06F05D18D
:103D1000FFE700200190042000904AE04EF60C508E
:103D2000CEF20000006800F4E060B0F5C06F05D18D
:103D3000FFE7012001900320009039E04EF60C507F
:103D4000CEF20000006800F4E060B0F5A06F04D18E
:103D5000FFE702200190009029E04EF60C50CEF2D1
:103D60000000006800F4E060B0F5806F05D1FFE767
:103D7000032001900120009018E04EF60C50CEF286
:103D80000000006800F4E060B0F5407F05D1FFE777
:103D9000042001900020009007E04FF4A06000F0A4
:103DA00035F8022001900090FFE7FFE7FFE7FFE70B
:103DB000FFE79DF80E000199C1F1040188400290CF
:103DC0009DF80D000099C1F104020F21D14001407E
:103DD00002980843029002980001029002989DF90F
:103DE0000F104EF20042CEF2000288549DF90F10DF
:103DF00001F01F02012090404A114EF20011CEF254
:103E0000000141F8220004B080BD000081B00090A4
:103E100000980021C0F2FA5108434EF60C51CEF240
:103E20000001086001B0704781B0ADF80200BDF834
:103E3000020000F01F02012101FA02F3810943F69A
:103E40000002C4F2020288581843885001B070473B
:103E500081B0ADF80200BDF8020000F01F020121A0
:103E600001FA02F3810943F60002C4F20202885803
:103E70009843885001B0704781B0ADF80200BDF89A
:103E8000020000F01F02012101FA02F3810943F64A
:103E90000002C4F2020288581843885001B07047EB
:103EA00081B0009000986FF08071884209D1FFE7DF
:103EB000009A43F68C01C4F20201086810400860C1
:103EC00008E0009A43F68C01C4F20201086810432E
:103ED0000860FFE701B0704780B588B040F64050F9
:103EE000C2F2020002684FF26241C0F6090104A862
:103EF000029000F05FFF4EF23200C0F60700694604
:103F000008606420002103913A221423FDF798F8F9
:103F1000039869460860F02213231946FDF7E0F87C
:103F2000029A039B6946102008607A200121FEF75F
:103F300069F908B080BD000040F64051C2F20201AC
:103F4000002008607047000080B582B00190019A9F
:103F500040F64051C2F20201086810440860FFF7C1
:103F6000BBFF02B080BD000080B584B0002003908C
:103F7000FFE7039840F64451C2F20201D1F8E01481
:103F800088423CDAFFE7039940F64450C2F202004F
:103F9000009050F83100FFF793FE0146009802911F
:103FA000039900EBC1004068FFF792FE019003986F
:103FB00058B9FFE70298019940F64452C2F2020252
:103FC00092F8E424FEF75CFF14E0039800EBD07154
:103FD00021F00101401A30B1FFE702980199012256
:103FE000FFF714F805E0029801990022FFF70EF898
:103FF000FFE7FFE7FFE7039801300390B9E704B05C
:1040000080BD000080B586B000200590FFE70598D0
:1040100040F64451C2F20201D1F8E014884225DA98
:10402000FFE7059940F64450C2F20200029050F8B2
:104030003100FFF745FE014602980491059900EB17
:10404000C1004068FFF744FE0390BDF81000BDF8C2
:104050000C106B464FF6FF721A6014231A46FCF7D9
:10406000ABFFFFE7059801300590D0E706B080BDB3
:1040700040F64450C2F20200D0F8E0049B2815DC60
:10408000FFE740F64451C2F20201D1F8E0C401EB6F
:10409000CC0252F8083C52F8040C41F83C30506015
:1040A000D1F8E0040130C1F8E004FFE770470000F8
:1040B00040F64451C2F202010220C1F8E00403209C
:1040C00081F8E40406200860486005228A60C86020
:1040D0007047000080B586B040F64450C2F202003E
:1040E000D0F8E01400EBC10252F8081C52F8042C7E
:1040F00005920491D0F8E00401380390FFE703989B
:10410000012814DBFFE7DDF80CC040F64453C2F28F
:10411000020303EBCC0151F8082C51F8040C43F8CE
:104120003C204860FFE7039801380390E7E740F63A
:104130004450C2F2020090F8E404014601910328C1
:1041400062D80199DFE801F00219314840F6445085
:10415000C2F20200406838B9FFE740F64451C2F2AB
:1041600002010C20486007E040F64451C2F202010F
:10417000486801384860FFE746E040F64450C2F224
:10418000020040680C2807D1FFE740F64451C2F214
:1041900002010020486007E040F64451C2F20201EB
:1041A000486801304860FFE72EE040F64450C2F214
:1041B0000200006838B9FFE740F64451C2F202013C
:1041C0000B20086007E040F64451C2F20201086883
:1041D00001380860FFE717E040F64450C2F20200E1
:1041E00000680B2807D1FFE740F64451C2F20201F4
:1041F0000020086007E040F64451C2F2020108685E
:1042000001300860FFE7FFE740F64450C2F20200C9
:10421000006840F62051C2F202010968884219D1B3
:10422000FFE740F64450C2F20200406840F62051D9
:10423000C2F20201496888420CD1FFE7FFF718FF7C
:1042400040F62050C2F202008068FFF77DFEFEF7C4
:10425000E9FF0BE00498FFF733FD00900598FFF7A6
:1042600037FD01460098FEF711FFFFE7012002909D
:10427000FFE7029840F64451C2F20201D1F8E0147F
:10428000884223DAFFE740F64451C2F2020108688F
:10429000029A51F83210884213D1FFE740F6445198
:1042A000C2F202014868029A01EBC20149688842E1
:1042B00007D1FFE740F63051C2F202010120086049
:1042C000FFE7FFE7029801300290D2E706B080BD19
:1042D00081B000900099086840F04000086001B08B
:1042E0007047000082B00190ADF80210BDF80200E6
:1042F0000199C86002B0704783B0019000910198A5
:1043000080680099084204D0FFE701208DF80B0077
:1043100003E000208DF80B00FFE79DF80B0003B0D1
:104320007047000083B00290019100200090029835
:1043300000680090009800F44150009001980168D6
:104340000098084300900198416800980843009045
:10435000019881680098084300900198C16800980E
:104360000843009001980169009808430090019863
:1043700041690098084300900198816900980843BA
:1043800000900098029908600299C86920F40060C2
:10439000C86103B07047000084B08DF80F008DF83D
:1043A0000E109DF80E0000F0030081000F208840E1
:1043B000C04302909DF80F009DF80E1001F003011C
:1043C0008900884001909DF80E0080080146009108
:1043D000032838D80099DFE801F0020F1C29029A5F
:1043E00043F60801C4F20101086810400860019A10
:1043F00008681043086027E0029A43F60C01C4F2F3
:104400000101086810400860019A086810430860BC
:104410001AE0029A43F61001C4F201010868104044
:104420000860019A0868104308600DE0029A43F69C
:104430001401C4F20101086810400860019A08687C
:104440001043086000E0FFE704B0704784B000202C
:104450000390029043F60001C4F20201086840F4A0
:1044600080300860FFE703980130039043F60000B6
:10447000C4F20200006800F400300290FFE70299E5
:104480000020009041B9FFE703984FF6FF71401AF2
:1044900018BF01200090FFE70098C0070028E2D174
:1044A000FFE743F60000C4F2020000688003002822
:1044B0000CD4FFE7FFE743F60000C4F202000068F7
:1044C0008003002801D4FFE7F5E7FFE743F640014A
:1044D000C4F20201086840F08050086047F2000111
:1044E000C4F20001086840F44040086043F6080147
:1044F000C4F2020108680860086840F400400860DF
:10450000086840F4A050086043F60401C4F20201B8
:1045100046F21940C0F64010086043F60001C4F2AC
:104520000201086840F080700860FFE743F6000071
:10453000C4F2020000688001002801D4FFE7F5E71B
:1045400047F20001C4F20001086840F480300860BE
:10455000FFE747F20400C4F200000068C00300282F
:1045600001D4FFE7F5E747F20001C4F20001086853
:1045700040F400300860FFE747F20400C4F2000096
:1045800000688003002801D4FFE7F5E743F608013F
:10459000C4F2020108680190019820F00300019024
:1045A000019840F00200019001980860FFE743F68F
:1045B0000800C4F2020000680007002801D4FFE7E9
:1045C000F5E704B07047000080B5FFF73FFF80BDFE
:1045D00080B540F20000C2F20000006844F6D351FA
:1045E000C1F26201A0FB01108009FEF73FF810B193
:1045F000FFE7FFE7FEE74FF0FF300021FDF74AFF3E
:1046000080BD000081B000900099086840F08000F3
:10461000086001B07047000084B00390ADF80A1044
:104620000192BDF80A0001460091032800F255816D
:104630000099DFE811F004005C00BA00180103994A
:10464000086A20F0010008620399886920F00300DD
:104650008861019802880399086A104308620399E7
:10466000086A20F002000862019882880399086AAB
:104670001043086203980021C4F20101884208D067
:10468000FFE7039840F20041C4F2010188422DD1B6
:10469000FFE70399086A20F0040008620198428845
:1046A0000399086A104308620399086A20F0080019
:1046B00008620198C2880399086A10430862039946
:1046C000486820F48070486001980289039948681E
:1046D000104348600399486820F4007048600198CE
:1046E00042890399486810434860FFE7F6E0039960
:1046F000086A20F0100008620399886920F440706D
:104700008861019802880399086A40EA02100862E9
:104710000399086A20F020000862019882880399B2
:10472000086A40EA0210086203980021C4F20101FD
:10473000884208D0FFE7039840F20041C4F201012B
:10474000884231D1FFE70399086A20F040000862EF
:10475000019842880399086A40EA021008620399A6
:10476000086A20F0800008620198C2880399086AEC
:1047700040EA021008620399486820F480604860AB
:10478000019802890399486840EA820048600399C9
:10479000486820F40060486001984289039948689D
:1047A00040EA82004860FFE798E00399086A20F435
:1047B000807008620399C86920F00300C8610198FD
:1047C00002880399086A40EA022008620399086A8D
:1047D00020F400700862019882880399086A40EA10
:1047E0000220086203980021C4F20101884208D027
:1047F000FFE7039840F20041C4F20101884231D141
:10480000FFE70399086A20F48060086201984288F3
:104810000399086A40EA022008620399086A20F4B2
:10482000006008620198C2880399086A40EA022081
:1048300008620399486820F4805048600198028912
:104840000399486840EA021048600399486820F4D8
:1048500000504860019842890399486840EA021074
:104860004860FFE73AE00399086A20F48050086244
:104870000399C86920F44070C861019802880399BF
:10488000086A40EA023008620399086A20F400507E
:104890000862019882880399086A40EA0230086237
:1048A00003980021C4F20101884208D0FFE7039871
:1048B00040F20041C4F2010188420DD1FFE70399A3
:1048C000486820F48040486001980289039948684C
:1048D00040EA82104860FFE700E0FFE704B070475D
:1048E00083B00290ADF80610ADF80420BDF80600C4
:1048F00001460091032836D80099DFE801F0020E46
:104900001B270299886920F070008861BDF8042097
:10491000029988691043886126E00299886920F429
:10492000E0408861BDF804200299886940EA0220CD
:10493000886119E00299C86920F07000C861BDF86B
:1049400004200299C8691043C8610DE00299C86942
:1049500020F4E040C861BDF804200299C86940EA2B
:104960000220C86100E0FFE703B0704784B0039005
:10497000ADF80A100192BDF80A0001460091032823
:1049800014D80099DFE801F002060A0E0198039995
:1049900048630CE001980399886308E00198039943
:1049A000C86304E001980399086400E0FFE704B0DD
:1049B0007047000083B00290ADF80610ADF80420F7
:1049C000BDF8060001460091032836D80099DFE8BB
:1049D00001F0020E1B270299886920F00800886107
:1049E000BDF80420029988691043886126E0029985
:1049F000886920F400608861BDF804200299886904
:104A000040EA0220886119E00299C86920F0080094
:104A1000C861BDF804200299C8691043C8610DE05F
:104A20000299C86920F40060C861BDF804200299A9
:104A3000C86940EA0220C86100E0FFE703B07047A0
:104A400080B590B00F900F980E90B0F1804F73D05A
:104A5000FFE70E9840F20041C4F20001884274D092
:104A6000FFE70E9840F60001C4F20001884275D0BD
:104A7000FFE70E9840F60041C4F20001884276D06C
:104A8000FFE70E9841F20001C4F20001884277D09E
:104A9000FFE70E9841F20041C4F20001884278D04D
:104AA000FFE70E9841F60001C4F20001884200F0D1
:104AB0009D80FFE70E9841F60041C4F20001884254
:104AC00000F09D80FFE70E9842F20001C4F2000161
:104AD000884200F09D80FFE70E980021C4F201019A
:104AE000884220D0FFE70E9840F20041C4F2010155
:104AF000884257D0FFE70E9844F20001C4F201014A
:104B0000884258D0FFE70E9844F20041C4F20101F8
:104B1000884259D0FFE70E9844F60001C4F2010123
:104B200088425AD07DE04FF410600D90FFF7A4F951
:104B30000D98FFF78DF975E04FF400600C90FFF7CA
:104B40009BF90C98FFF784F96CE040F601000B909C
:104B5000FFF792F90B98FFF77BF963E040F602004C
:104B60000A90FFF789F90A98FFF772F95AE040F6C0
:104B700003000990FFF780F90998FFF769F951E000
:104B800040F604000890FFF777F90898FFF760F9FE
:104B900048E040F605000790FFF76EF90798FFF729
:104BA00057F93FE040F601100690FFF765F90698C7
:104BB000FFF74EF936E04FF411600590FFF75CF90E
:104BC0000598FFF745F92DE040F611100490FFF726
:104BD00053F90498FFF73CF924E040F612100390D3
:104BE000FFF74AF90398FFF733F91BE040F6060098
:104BF0000290FFF741F90298FFF72AF912E040F618
:104C000007000190FFF738F90198FFF721F909E053
:104C100040F608000090FFF72FF90098FFF718F909
:104C200000E0FFE710B080BD81B0009000990868F7
:104C300020F00100086001B07047000081B00090D2
:104C40000099086840F00100086001B0704700005A
:104C500082B00190009100980088019988620198C3
:104C60000021C4F20101884225D0FFE70198B0F18C
:104C7000804F20D0FFE7019840F20041C4F20001CC
:104C8000884218D0FFE7019840F60001C4F2000105
:104C9000884210D0FFE7019840F60041C4F20001BD
:104CA000884208D0FFE7019840F20041C4F20101B8
:104CB000884212D1FFE70199086820F0700008606F
:104CC000009842880199086810430860009882881B
:104CD0000199086810430860FFE70098806801990F
:104CE000C862019841F20001C4F20001884214D068
:104CF000FFE7019841F20041C4F2000188420CD064
:104D0000FFE70199086820F4407008600098C288A5
:104D10000199086810430860FFE701980021C4F278
:104D20000101884208D0FFE7019840F20041C4F237
:104D30000101884205D1FFE70098007B01990863D3
:104D4000FFE70199486940F00100486102B07047EF
:104D500082B001900091009A0199C8681043C86020
:104D600002B0704782B0019000910098C043019951
:104D7000086102B07047000084B00290019102986F
:104D8000C0680199084000900298006901990842A2
:104D900007D0FFE7009820B1FFE701208DF80F0052
:104DA00003E000208DF80F00FFE79DF80F0004B02E
:104DB000704700000FB4084B10B504A902AA03986D
:104DC00000F0DEF8044602A9002000F070FC204646
:104DD00010BC5DF814FB0000AF56000802E008C8E4
:104DE000121F08C1002AFAD170477047002001E065
:104DF00001C1121F002AFBD1704700002DE9FF5F9F
:104E000082B00021DDE90430020DDDF840B003433B
:104E100018D044F61050A2F2FF32424315141198F4
:104E200001281FD0A5EB0B00401C5FEA000A4FF0E1
:104E300000064E4FDFF83891B046504615D5CAF1FE
:104E4000000413E0119801244AA3012801D16FEA5C
:104E50000B010298119AC0E90031C0E9024206B084
:104E6000BDE8F09FCBF10000DFE704460021404A97
:104E7000491842EB0450CDE9001012E0E00707D0DA
:104E800032463B4640464946FBF710FC8046894681
:104E900032463B4610461946FBF708FC06460F46CD
:104EA0006410002CEAD1DDE90401DDE90023BAF148
:104EB000000F06DAFBF7FAFB42464B46FBF7F6FB20
:104EC00005E0FBF759FA42464B46FBF755FA044614
:104ED0000E460022284BFBF773FC03D84FF0FF303F
:104EE000014607E00022254B20463146FBF79DF99D
:104EF000FBF74EFC102409E0002C0ADB0A220023F9
:104F0000FBF7EEFA039B30321A55641E50EA010299
:104F1000F2D1641C039AC4F111031444119A012ABA
:104F200003D0012208430DD10AE0084304D0002039
:104F30004FF0110B119072E7A3EB0B056D1E0DE006
:104F40005B4504DD4FF0000205F1010504E003DAE2
:104F50004FF00002A5F10105002AECD0029811994A
:104F6000C0E90231C0E9004579E7000000001440C3
:104F70000000F03F300000000000F0430000E03F80
:104F80002DE9FF4F95B09B468946064600250FE266
:104F9000252877D100242746F84A0121059400E00E
:104FA000044316F8013F203B01FA03F01042F7D109
:104FB00030782A2811D06FF02F033078A0F130021A
:104FC000092A16D8059A44F0020402EB820203EB88
:104FD00042021044761C0590EFE759F8042B059225
:104FE000002A03DA504244F40054059044F00204CD
:104FF000761C30782E2816D116F8010F44F00404E0
:105000002A280DD06FF02F023078A0F13003092B41
:1050100009D807EB870302EB4303C718761CF3E7B5
:1050200059F8047B761C30786C280FD006DC4C28AD
:1050300017D068280DD06A2814D104E0742810D045
:105040007A280FD10DE044F400140AE044F48014EF
:1050500001E044F440147278824202D104F58014D5
:10506000761C761C307866280BD013DC582877D055
:1050700009DC002875D04528F6D04628F4D047280A
:105080001AD19DE118E0632835D0642879D06528CD
:1050900012D195E1702873D008DC6728F1D0692817
:1050A0006FD06E280DD06F2806D1B5E073282CD0B4
:1050B000752875D0782874D05A46179990476D1C7A
:1050C00075E1C4F30250022809D003280DD0D9F8A5
:1050D000001004280DD00D6009F1040967E1D9F82A
:1050E0000010EA17C1E90052F6E7D9F800100D8068
:1050F000F2E70D70F0E719F8041B8DF8001000209E
:105100008DF80100EA46012003E059F804AB4FF0A6
:10511000FF3061074FF0000102D40DE008F10101FA
:105120008846B9420FDA8045F8DB1AF808100029E2
:10513000F4D108E008F1010188468142FADB1AF84F
:1051400008100029F6D105985B46A0EB0807214618
:105150003846179A00F094FA284400EB080507E057
:105160004DE029E10DE01AF8010B5A4617999047D6
:10517000B8F10108F7D25B4621463846179A13E189
:1051800042E00A220092C4F302524FF0000A022ABF
:1051900008D059F804CB032A4FEAEC710AD00DE08D
:1051A00029E02AE009F1070121F00702F2E802C133
:1051B000914609E00FFA8CFC4FEAEC71042A03D106
:1051C0004FFA8CFC4FEAEC71002907DA0A460021FD
:1051D000DCF1000C61EB02012D2202E0220504D576
:1051E0002B228DF80420012203E0E20701D02022C7
:1051F000F7E7904659E00A2102E010220DE0102165
:105200004FF0000A00910BE010224FF0000A44F02A
:1052100004040827009203E008224FF0000A0092DD
:10522000C4F30252022A05D059F804CB0021032A04
:1052300008D009E009F1070121F00702F2E802C1F4
:10524000914605E01FFA8CFC042A01D10CF0FF0CFA
:105250004FF00008220728D5702806D0009B83F065
:10526000100353EA0A0305D00EE040228DF8042013
:10527000012208E05CEA010206D030228DF8042009
:105280008DF8050002229046009B83F0080353EA44
:105290000A030AD15CEA010201D1620705D5302276
:1052A0008DF804204FF001087F1E582804D034A048
:1052B00003900EA802900DE036A0F9E75346604631
:1052C000009AFBF70DF984460398825C0298401E11
:1052D000029002705CEA0100F0D1029806A9081A57
:1052E00000F1200A600702D524F4803400E0012791
:1052F000574502DDA7EB0A0000E0002000EB0A01A1
:10530000009005984144401A0590E00306D45B469E
:105310002146179A059800F0B3F90544002706E0E6
:1053200001A85A46C05D179990476D1C7F1C4745E0
:10533000F6DBE0030CD55B462146179A059800F092
:105340009FF9054404E030205A46179990476D1C98
:105350000099481E00900029F5DC08E002980299A7
:105360005A460078491C0291179990476D1CBAF172
:105370000001AAF1010AF1DC65E100000928010041
:1053800030313233343536373839616263646566BB
:10539000000000003031323334353637383941427D
:1053A000434445460000000000F058F90544761CCF
:1053B000307800287FF4ECAD19B02846BDE8F08FB6
:1053C000620700D4062709F1070222F0070CFCE867
:1053D0000223E14603F000485FEA080C02D00FF216
:1053E000702C0DE05FEA045C02D50FF2682C07E038
:1053F0005FEAC47C02D00FF2602C01E0AFF2700CC7
:105400004FF0FF3823F00043CDF850C065280CD092
:1054100006DC452809D046281DD047283DD13DE06F
:10542000662818D067287ED138E00021112F01DBD3
:10543000112000E0781CCDE9000106A90EA8FFF7B5
:10544000DDFCDDE90F010E9A03910021009207F1C6
:10545000010A04914DE04FF000400097CDE90110A2
:1054600006A90EA8FFF7CAFCDDE90F0203920E9B06
:1054700011990022DDF80CA00093049211B9791C57
:1054800000EB010AB7EB0A0004D4C0F1FF3007F1CA
:10549000010A0490AAEB0700019044E0012F00DA12
:1054A00001270021112F01DD112000E03846CDE950
:1054B000000106A90EA8FFF7A1FCDDE90F010E9A75
:1054C0000391002104910092BA4621070CD403995C
:1054D000514500DA8A46BAF1010F05DD009AAAF1BA
:1054E0000101515C302908D0B84202DA10F1040FF2
:1054F00006DA0121CDE9011015E0AAF10101E9E781
:10550000002805DC049901440491AAEB000102E0A3
:10551000411C514500DD8A460499401A401C019007
:105520004FF000400290200704D40198504501DB61
:10553000CDF8048000208DF84F0002980DF14F0740
:10554000B0F1004F25D02B200E9002984FF00208AA
:1055500000280CDA404202902D200E9007E00A212C
:105560000298FAF7A7FF3031029007F8011DB8F151
:105570000001A8F10108F2DC02980028EFD1791EA1
:105580000E980870307800F0200040F0450007F8D1
:10559000020D12A8C01B00F107081498007800B192
:1055A000012000EB0A01019801EBE07105984144EC
:1055B000401A401E0590E00306D45B462146179A28
:1055C000059800F05DF805441498007818B15A4623
:1055D000179990476D1CE00324D55B462146179A26
:1055E000059800F04DF805441CE00498002807DBFE
:1055F000DDE90301884203DD0098405C179901E072
:10560000179930205A469047049805F10105401C2F
:1056100004900198401E019004D12E205A461799FB
:1056200090476D1CBAF10001AAF1010ADDDC05E02A
:1056300017F8010B5A46179990476D1CB8F10001F5
:10564000A8F10108F4DC5B462146179A0598ABE601
:105650002D0000002B000000200000002DE9F0418B
:10566000044600251E461746880404D405E0394642
:105670002020B0476D1C641EF9D52846BDE8F08196
:105680002DE9F041044600251E469046C80301D589
:10569000302700E02027880404D505E0414638463D
:1056A000B0476D1C641EF9D52846BDE8F0810A6834
:1056B000531C0B60107070470000000000000000D9
:1056C00000000000000000000000000808080808B2
:1056D0000808000008080000000012121212000062
:1056E000000000000000000000002424247F242487
:1056F000247F2424240000000000083E4948483844
:105700000C0A09493E080000000031494A320408E9
:10571000102629494600000000001C2222141829E6
:10572000454242221D000000000008080810000049
:10573000000000000000000000000408101010101D
:1057400010101008040000000000100804040404F5
:10575000040404081000000000000008492A1C2A64
:105760004908000000000000000000080808087F49
:105770000808080800000000000000000000000009
:105780000000181808081000000000000000003F8A
:105790000000000000000000000000000000000009
:1057A000000018181800000000000002040808108B
:1057B000102020404000000000003E414141414196
:1057C000414141413E000000000000101C1010103B
:1057D00010101010107C000000003E4141402010CD
:1057E000080402417F00000000003E414140201CAF
:1057F000204041413E0000000000203028242221AA
:105800007F2020202000000000007F0101013F4098
:10581000404041413E00000000001C2241013D4348
:10582000414141221C0000000000007E4220201067
:10583000100808080808000000003E414141221CF1
:10584000224141413E00000000003E4141414141B2
:105850007E4040221C0000000000000018181800C4
:1058600000001818180000000000000018181800A8
:10587000000018180808100000000040201008045C
:10588000081020400000000000000000007F000021
:10589000007F00000000000000000002040810204B
:1058A000100804020000000000003E4141402010AA
:1058B000080800080800000000003E415D555555ED
:1058C0005D0141413E00000000000008081814146A
:1058D000243C224242E700000000001F2222221E38
:1058E00022424242221F00000000007C424201018D
:1058F00001010142221C00000000001F224242421E
:1059000042424242221F00000000003F4212121E8B
:1059100012120242423F00000000003F4212121EDB
:1059200012120202020700000000003C22220101C4
:1059300001712122221C0000000000E74242424285
:105940007E42424242E700000000003E080808088C
:1059500008080808083E00000000007C1010101025
:10596000101010101010110F0000007722120A0EF4
:105970000A1212222277000000000007020202022F
:1059800002020202427F00000000007736363636FF
:10599000362A2A2A2A6B0000000000E346464A4ABB
:1059A00052525262624700000000001C22414141F5
:1059B00041414141221C00000000003F424242425E
:1059C0003E020202020700000000001C2241414189
:1059D0004141414D321C60000000003F4242423EC6
:1059E0001212222242C700000000007C4242020440
:1059F00018204042423E00000000007F490808088D
:105A000008080808081C0000000000E74242424263
:105A100042424242423C0000000000E7424222244F
:105A200024141418080800000000006B2A2A2A2AEF
:105A30002A36141414140000000000E7422424182D
:105A40001818242442E700000000007722221414D2
:105A500008080808081C00000000007E2120101023
:105A600008040442423F000000001E1010101010F5
:105A700010101010101E0000000000402010100830
:105A80000804040202000000000078080808080862
:105A900008080808087800000000081422410000E7
:105AA00000000000000000000000000000000000F6
:105AB000000000000000FF000000100808040000C3
:105AC000000000000000000000000000003C424018
:105AD0007C4242427C00000000000006021E22427E
